:02000002B0004C
:1040000000400B000C530B00000006000C000502E2
:084010000401E50C00000000B2
:0440180028500B0021
:10401C0009480A49884208B505D0094A824202D0AB
:10402C00121A00F049FF0748074A0021121A00F043
:10403C0051FF014808BD00BF3CE6032078520B003D
:10404C00A8E60320A8E60320EDE7032070B5074E91
:10405C00074C00F0FDFDA41BA4080025AC4200D1C8
:10406C0070BD56F8043B98470135F7E720520B001A
:10407C0044520B0000F013B808B500F025F8BDE869
:10408C00084000F09DBD00F009BA00F00FBA0078AE
:10409C00B0FA80F04009704701230370704708B5EF
:1040AC0000210E2000F044FE0121022000F040FE11
:1040BC000121052000F03CFE00F0FCFCBDE80840AE
:1040CC004FF4165100F0EABC38B50E2000F05AFE41
:1040DC00114C208000F0EEFC0A222188054600F0ED
:1040EC00EEFB284600F0DFFB208800F0F7F90121F9
:1040FC00052000F02EFE0021022000F02AFE208870
:10410C0000F0ECF90021052000F023FEBDE838405A
:10411C000121022000F01DBEB4E6032010B5074BB0
:10412C00074A9A600024C3E90044032000F022F9F6
:10413C0021460120BDE8104000F02CB9A8E6032070
:10414C000000FFFF08B5024B1B685B6C019308BDB8
:10415C004802030008B5024B1B685B68019308BD5D
:10416C001802030008B5024B1B685B69019308BD7C
:10417C001802030008B5024B1B685B68019308BD6D
:10418C002C02030008B5024B1B689B68019308BD09
:10419C002C02030008B5024B1B68DB68019308BDB9
:1041AC002C02030008B5024B1B681B69019308BD68
:1041BC002C02030008B5024B1B681B6B019308BD56
:1041CC002C02030008B5024B1B681B6A019308BD47
:1041DC002802030008B5024B1B685B6A019308BDFB
:1041EC002802030008B5024B1B689B6A019308BDAB
:1041FC002802030008B5024B1B68DB6A019308BD5B
:10420C002802030008B5024B1B681B6B019308BD09
:10421C002802030008B5024B1B685B6B019308BDB9
:10422C002802030008B5024B1B681B6C019308BDE8
:10423C002802030008B5024B1B685B69019308BD9B
:10424C006402030008B5024B1B689B68019308BD10
:10425C006802030008B5024B1B68DB68019308BDBC
:10426C006802030008B5024B1B68DB69019308BDAB
:10427C003002030008B5024B1B681B6A019308BD92
:10428C003002030008B5024B1B68DB68019308BDC4
:10429C003C02030008B5024B1B681B69019308BD67
:1042AC003C02030008B5024B1B685B69019308BD17
:1042BC003C02030008B5024B1B689B69019308BDC7
:1042CC003C02030008B5024B1B68DB69019308BD77
:1042DC003C02030008B5024B1B681B6A019308BD26
:1042EC003C02030008B5024B1B689B6A019308BD96
:1042FC003C02030008B5024B1B681B6C019308BD04
:10430C003C02030008B5024B1B681B68019308BDF7
:10431C004C02030008B5024B1B685B68019308BD97
:10432C004C02030008B5024B1B681B69019308BDC6
:10433C004C02030008B5024B1B685B69019308BD76
:10434C004C02030008B5024B1B689B69019308BD26
:10435C004C02030008B5024B1B68DB69019308BDD6
:10436C004C02030008B5024B1B681B6A019308BD85
:10437C004C02030008B5024B1B685B68019308BD37
:10438C002002030008B5024B1B685B69019308BD52
:10439C002002030008B5024B1B68DB6A019308BDC1
:1043AC002002030008B5034B1B68D3F88830019337
:1043BC0008BD00002002030008B5034B1B68D3F8AE
:1043CC009430019308BD00002002030008B5024B95
:1043DC001B68DB6B019308BD4402030008B5024B5C
:1043EC001B685B68019308BD4002030008B5024BD3
:1043FC001B689B68019308BD4002030008B5024B83
:10440C001B68DB68019308BD4002030008B5024B32
:10441C001B681B69019308BD4002030008B5024BE1
:10442C001B685B69019308BD4002030008B5024B91
:10443C001B689B69019308BD4002030008B5024B41
:10444C001B68DB69019308BD4002030008B5024BF1
:10445C001B681B6A019308BD4002030008B5024BA0
:10446C001B681B6B019308BD4002030008B5024B8F
:10447C001B685B6B019308BD4002030008B5024B3F
:10448C001B681B6C019308BD4002030008B5024B6E
:10449C001B685B6C019308BD4002030008B5024B1E
:1044AC001B681B68019308BD1C02030008B5024B76
:1044BC001B685B68019308BD1C02030008B5024B26
:1044CC001B681B6C019308BD1C02030008B5024B52
:1044DC001B685B6C019308BD1C0203000021FFF7F5
:1044EC0051BF0000024800230360FFF72BBE00BF42
:1044FC00B8E60320002240681146FFF7A7BF002250
:10450C0040681146FFF7B2BF40680022FFF7A6BF14
:10451C004068002281F00101FFF790BF0023406842
:10452C001A461946FFF782BF002340681A461946FF
:10453C00FFF774BF002240681146FFF767BF0022E7
:10454C0040681146FFF752BF406800220221FFF776
:10455C0055BF002340681A46FFF740BF024B0322A9
:10456C005A60024A1A607047BCE6032044500B00A4
:10457C007047F8B5064615460C468F18BC4206D057
:10458C00336814F8011B9B6830469847F6E72846B9
:10459C00F8BD007C0022FFF715BE007C0021FFF760
:1045AC0019BE007C0021FFF71DBE007C0021FFF727
:1045BC0021BE007C0021FFF725BE10B51421044656
:1045CC00FFF763FD204610BD10B54FF47A73044617
:1045DC0008460021C4E90113034B236020741146E3
:1045EC00FFF720FE204610BD80500B00704710B521
:1045FC0018210446FFF749FD204610BDF0B5037D98
:10460C00062B8DB00E4600F104074FF0000412D0BB
:10461C0000F1080515F8011D0A22304600F04FF98B
:10462C00AF42044419D0002CF4D02E21304600F0B7
:10463C0037F90444EEE72F236A4639460A208DF8F1
:10464C000040FFF7F7FD684600F07AFC336802463D
:10465C00DB68694630469847044620460DB0F0BDED
:10466C0010B5054B0446112240F8043B002100F024
:10467C0031FC204610BD00BFA8500B000346074A72
:10468C0010B543F8042B01F1100251F8044B43F818
:10469C00044B9142F9D10A781A7010BDA8500B0046
:1046AC0010B59DF8084044EA032343EA024242EA6B
:1046BC00016104234160037510BD000007B5064B72
:1046CC000360CB7800938B784A780978FFF7E8FF82
:1046DC0003B05DF804FB00BFA8500B00014B024A6D
:1046EC001A607047C4E60320B4500B0000234068E6
:1046FC001A46FFF773BE406800220221FFF77EBE08
:10470C00002240681146FFF771BE00224068114636
:10471C00FFF77CBE002340681A461946FFF77EBEA1
:10472C00002340681A461946FFF780BE40680021F6
:10473C00FFF7A4BE40680021FFF7A8BE4068002226
:10474C0081F00101FFF77ABE40680022FFF786BEB8
:10475C00002240681146FFF789BE002240681146CE
:10476C00FFF774BE2DE9F04395B014460D4607468D
:10477C00FFF776FF00211C220DA8009100F0AAFB88
:10478C0040230C9320466B460CAA0021FFF762FDD8
:10479C00044600284BD1024601216868FFF736FE1B
:1047AC000221804622466868FFF730FE009E814653
:1047BC002146002E3BD0002939D17368022B03D03F
:1047CC000A2B11D0F669F4E7B8F1000FFAD0716931
:1047DC0006A8043107ADFFF771FF0FCD3C1D0FC4C8
:1047EC002B6823704146EDE7B9F1000FEAD07469EC
:1047FC00102201A800F06EFB06238DF8143001ADD9
:10480C0004F108031834186859682A4603C208339F
:10481C00A3421546F7D101A906A807ADFFF72EFF55
:10482C000FCD3C1D0FC42B6823704946CAE7009876
:10483C00FFF708FD384615B0BDE8F083024B034A7C
:10484C001A6000225A607047C8E60320C0500B0063
:10485C00F8B506460D468F180024BD420CD03368BF
:10486C0015F8011B9B6830469847031E01DB1C445E
:10487C00F3E7002C08BF1C462046F8BD13B50446D0
:10488C00084659B1019100F05BFB23680199DB6884
:10489C000246204602B0BDE81040184702B010BDD9
:1048AC0003689B68184738B50D210546FFF7F8FFDC
:1048BC000A2104462846FFF7F3FF204438BD30B5E3
:1048CC008BB00023012A8DF8243098BF0A2209AC42
:1048DC000D46B1FBF2F101FB125303F0FF03092B60
:1048EC0094BF30333733DBB2AA4204F8013DEFD921
:1048FC002146FFF7C3FF0BB030BD0000014B002277
:10490C009A607047D0E6032010B504460846217023
:10491C00FFF7A8FC00236360204610BD054B022264
:10492C001A60054B054A9A600020C3E90000FFF7A6
:10493C0021BD00BFECE60320E0E603200000FFFFF2
:10494C00024B1A68024B1A60704700BF3CE603200A
:10495C00F0E6032070474174704708B5007CFFF700
:10496C00C1FC20EAE07008BD08B5007CFFF792FCA2
:10497C0020EAE07008BD08B5007CFFF79BFC40EA1C
:10498C00E07008BD08B5007CFFF78CFC40EAE070D5
:10499C0008BD007CFFF796BC37B5457C04462DB1AD
:1049AC00207C03B0BDE83040FFF76CBC007C01916B
:1049BC00FFF798FC00280199F2DC284603B030BDC3
:1049CC0010B514210446FFF760FB204610BD000013
:1049DC0010B54FF47A730446084611460022C4E918
:1049EC000123044B2360012320746374FFF782FCC2
:1049FC00204610BD18510B0041747047704770472A
:104A0C0008B50021007CFFF79DFC40EAE07008BD72
:104A1C0008B50121007CFFF795FC40EAE07008BD69
:104A2C0008B5007CFFF786FC20EAE07008BD08B5ED
:104A3C00007CFFF777FC20EAE07008BD13B5044654
:104A4C00007C0191FFF776FC0028019901DC607C69
:104A5C0020B1207CFFF77EFC20EAE07002B010BD94
:104A6C00007CFFF77FBC10B514210446FFF70DFB4B
:104A7C00204610BD10B54FF47A7304460846002149
:104A8C00C4E90113044B23600123207463741146A1
:104A9C00FFF738FC204610BD48510B00007C00226B
:104AAC00FFF738BC10B514220446002100F012FAAE
:104ABC00204610BD10B50F4C88B003A8FFF7F2FFCD
:104ACC002178BFF35B8F11F001010FD120460191CA
:104ADC00FFF7DDFA019948B103AA0748FFF7CAFFAF
:104AEC002046FFF7D9FA054800F0E0F9024808B073
:104AFC0010BD00BFF4E60320F8E60320094A0B00C2
:104B0C00002240681146FFF781BC00224068114624
:104B1C00FFF79CBC002240681146FFF7A7BC406819
:104B2C000022FFF79BBC4068002281F00101FFF7D7
:104B3C0085BC002340681A461946FFF777BC002352
:104B4C0040681A461946FFF769BC002240681146B6
:104B5C00FFF74CBC406800220221FFF74FBC00233A
:104B6C0040681A46FFF73ABC024B04225A60024ACC
:104B7C001A6070470CE7032078510B00014B18604A
:104B8C00704700BF40E6032008B50B4B43B1FFF75D
:104B9C0091FF03681B699847002801DDAFF3008083
:104BAC00064B43B100F05CF903681B699847002879
:104BBC0001DDAFF3008008BD000000000000000024
:104BCC0008B5FFF7E1FFFFF7CDFA014B186008BD00
:104BDC0028E703200548064A064908B5121A00F0D2
:104BEC006BF9054B054A1A6008BD00BF00F40320A1
:104BFC0004F4032074520B0000F403201E1C279AAB
:104C0C0007B5002300931A466FF07701FFF7D4FB2A
:104C1C0003B05DF804FB000007B543880A2B08D0ED
:104C2C00502B0BD1094B1B684BB103B05DF804EB57
:104C3C001847FFF7E5FF03B05DF804FB0023009372
:104C4C001A466FF07701FFF7B7FBF4E718E703207C
:104C5C0010B512480021FFF739FC114B1A68114BA3
:104C6C009A42114B0CBF012200221A7001D0FFF79F
:104C7C00B1FFFFF76FFA044600F034F90B4B13B198
:104C8C002046AFF3008000210848FFF79FFBBDE8EA
:104C9C00104007480021FFF785BB00BF894B0B0074
:104CAC0000F403201E1C279A14E7032000000000C8
:104CBC00254C0B00232813B502D9002002B010BDDF
:104CCC00A0F10B03022B1AD8174C2178BFF35B8F82
:104CDC0011F001010BD120460191FFF7D8F9019990
:104CEC0028B11248FFF710FE2046FFF7D5F90F4BFD
:104CFC001878FFF7BFFA0028DFD10120DEE7012882
:104D0C0009D800F06DF80021007CFFF783FA80F0E1
:104D1C000100C0B2D2E709380128EED800F0A0F8A3
:104D2C00007CFFF7D7FAF2E71CE7032020E703200B
:104D3C00232838B504460D460AD8FF2908D0FFF7BA
:104D4C00B9FF28B129462046BDE83840FFF71ABA0A
:104D5C0038BD38B504460D46FFF71CFAFF2810D0B5
:104D6C00062804D84D2323FA00F0C30709D42046A3
:104D7C00FFF7A0FF28B129462046BDE83840FFF7D1
:104D8C0011BA38BD0D2810B504469CBF0E34A4B220
:104D9C002046FFF78FFF50B103212046FFF7EAF9B9
:104DAC00032804D12046BDE81040FFF703BA0020C9
:104DBC0010BD704738B52025142304460360856068
:104DCC0005610649284600F06FF8044960602846E2
:104DDC0000F06AF8E060204638BD00BFAC510B0013
:104DEC0030B50E4D2978BFF35B8F11F0010487B0FD
:104DFC0011D12846FFF74BF968B101A8FFF7DAFF8C
:104E0C0001AA21460648FFF7DFFB2846FFF744F9C5
:104E1C00044800F04BF8024807B030BD2CE70320E3
:104E2C0030E70320BF4D0B007047000038B5044637
:104E3C0014252A46002100F04DF82580402507490D
:104E4C0025812846258200F02FF804496060284609
:104E5C0000F02AF8E060204638BD00BFAC510B00D2
:104E6C0030B50E4D2978BFF35B8F11F0010487B07C
:104E7C0011D12846FFF70BF968B101A8FFF7D6FF4F
:104E8C0001AA21460648FFF7A3FD2846FFF704F9BF
:104E9C00044800F00BF8024807B030BD44E703208B
:104EAC0048E70320354E0B00FFF7EDB80023014611
:104EBC001A46184600F04CB80A44914200F1FF33F0
:104ECC0000D1704710B511F8014B03F8014F914216
:104EDC00F9D110BD02440346934200D1704703F848
:104EEC00011BF9E738B5104B1D68AB6B0446B3B921
:104EFC001820FFF7D3FA0246A86320B90B4B0C48D5
:104F0C004221FFF7DBFA0B490B4BC0E900130B4BAB
:104F1C0083600B23838100210120C2E90401AB6B68
:104F2C0000221C615A6138BD40E60320AD510B00D4
:104F3C00C4510B000E33CDAB34126DE6ECDE050024
:104F4C00034613F8012B002AFBD1181A01387047BD
:104F5C002DE9F843DFF8B8800646D8F800001F4664
:104F6C000D46914600F056F8254B1C6834B9254C7B
:104F7C001C60254B13B11B68C4F8883063681F2B69
:104F8C0007DDD8F8000000F047F84FF0FF30BDE81F
:104F9C00F8834EB3D4F8880088B91C4B23B9D8F8E1
:104FAC00000000F038F8F0E74FF48470FFF776FA61
:104FBC000028F4D00023C0E94033C4F888006368AB
:104FCC0040F8239001229A4000EB8301D0F8003185
:104FDC001343C0F80031022EC1F8807002BFD0F824
:104FEC0004311343C0F804316368D8F800005A1C2C
:104FFC000233626044F8235000F00EF80020C6E73C
:10500C00E8E703205CE7032000000000A9440B0044
:10501C00A4E6032070477047704700001D400B004A
:10502C0059400B0081400B0085400B000000000034
:10503C0000000000000000005F450B0055450B0010
:10504C004B450B0041450B0035450B0029450B002A
:10505C0039470B0041470B001D450B0015450B0054
:10506C000B450B0001450B0071470B0000000000C5
:10507C00000000007D450B00C7450B009F450B0051
:10508C007F450B00A7450B00AF450B00B7450B0048
:10509C00BF450B00000000000000000009460B009B
:1050AC00F9450B00FB450B0061707000000000001F
:1050BC0000000000F9460B0003470B000D470B00E6
:1050CC0017470B0021470B002D470B0039470B00EE
:1050DC0041470B0049470B0055470B005D470B0040
:1050EC0067470B0071470B0025592D256D2D256445
:1050FC005425483A254D3A2553257A00617363743B
:10510C00696D6500000000000000000061490B00A3
:10511C00CD490B00A5490B005D480B0075490B00F0
:10512C0091490B0083490B009F490B0063490B000D
:10513C0067490B0000000000000000000B4A0B0048
:10514C00734A0B00494A0B005D480B003B4A0B00AD
:10515C000D4A0B001D4A0B006D4A0B002D4A0B002B
:10516C00054A0B0000000000000000006B4B0B0018
:10517C00614B0B00574B0B000D4B0B004B4B0B00BB
:10518C003F4B0B0039470B0041470B00334B0B00D7
:10519C002B4B0B00214B0B00174B0B0071470B00DB
:1051AC00005245454E54206D616C6C6F63207375D5
:1051BC0063636565646564002F746D702F6A656E3A
:1051CC006B696E732D4743432D31302D70697065BB
:1051DC006C696E652D34385F323032303131323497
:1051EC005F313630363138303633392F7372632FA6
:1051FC006E65776C69622F6E65776C69622F6C696E
:10520C0062632F7374646C69622F72616E642E63B7
:10521C000000000029410B00F1440B0069450B0014
:10522C00E9460B0049480B0009490B0029490B00C2
:10523C004D490B00754B0B000000000000000000F6
:04524C00000000005E
:10525000040000001400000003000000474E550049
:105260001A5610DF2E03E7F53D5A80BB5D2B5580A3
:045270003A91B5D2E8
:045274000000000036
:1052780008510B0044E60320000000000000000075
:105288000000000000000000000000000000000016
:105298000000000000000000000000000000000006
:1052A80000000000000000000000000000000000F6
:1052B80000000000000000000000000000000000E6
:1052C80000000000000000000000000000000000D6
:0C52D8000000000000000000ECE70320D4
:1052E400FFFFFFFF00000102030405060708090A87
:1052F4000B0C0D0E0F101112131415161718191A82
:085304001B1C1D1E1F202800C8
:04530C007856341289
:04000003B000401CED
:00000001FF
